{
  "_format": "hh-sol-artifact-1",
  "contractName": "NFTMarketplace",
  "sourceName": "contracts/NFTMarketplace.sol",
  "abi": [
    {
      "inputs": [],
      "stateMutability": "nonpayable",
      "type": "constructor"
    },
    {
      "anonymous": false,
      "inputs": [
        {
          "indexed": true,
          "internalType": "address",
          "name": "owner",
          "type": "address"
        },
        {
          "indexed": true,
          "internalType": "address",
          "name": "approved",
          "type": "address"
        },
        {
          "indexed": true,
          "internalType": "uint256",
          "name": "tokenId",
          "type": "uint256"
        }
      ],
      "name": "Approval",
      "type": "event"
    },
    {
      "anonymous": false,
      "inputs": [
        {
          "indexed": true,
          "internalType": "address",
          "name": "owner",
          "type": "address"
        },
        {
          "indexed": true,
          "internalType": "address",
          "name": "operator",
          "type": "address"
        },
        {
          "indexed": false,
          "internalType": "bool",
          "name": "approved",
          "type": "bool"
        }
      ],
      "name": "ApprovalForAll",
      "type": "event"
    },
    {
      "anonymous": false,
      "inputs": [
        {
          "indexed": true,
          "internalType": "address",
          "name": "from",
          "type": "address"
        },
        {
          "indexed": true,
          "internalType": "address",
          "name": "to",
          "type": "address"
        },
        {
          "indexed": true,
          "internalType": "uint256",
          "name": "tokenId",
          "type": "uint256"
        }
      ],
      "name": "Transfer",
      "type": "event"
    },
    {
      "inputs": [
        {
          "internalType": "address",
          "name": "to",
          "type": "address"
        },
        {
          "internalType": "uint256",
          "name": "tokenId",
          "type": "uint256"
        }
      ],
      "name": "approve",
      "outputs": [],
      "stateMutability": "nonpayable",
      "type": "function"
    },
    {
      "inputs": [
        {
          "internalType": "address",
          "name": "owner",
          "type": "address"
        }
      ],
      "name": "balanceOf",
      "outputs": [
        {
          "internalType": "uint256",
          "name": "",
          "type": "uint256"
        }
      ],
      "stateMutability": "view",
      "type": "function"
    },
    {
      "inputs": [
        {
          "internalType": "string",
          "name": "tokenURI",
          "type": "string"
        },
        {
          "internalType": "uint256",
          "name": "price",
          "type": "uint256"
        }
      ],
      "name": "createToken",
      "outputs": [
        {
          "internalType": "uint256",
          "name": "",
          "type": "uint256"
        }
      ],
      "stateMutability": "payable",
      "type": "function"
    },
    {
      "inputs": [
        {
          "internalType": "uint256",
          "name": "tokenId",
          "type": "uint256"
        }
      ],
      "name": "executeSale",
      "outputs": [],
      "stateMutability": "payable",
      "type": "function"
    },
    {
      "inputs": [],
      "name": "getAllNFTs",
      "outputs": [
        {
          "components": [
            {
              "internalType": "uint256",
              "name": "tokenId",
              "type": "uint256"
            },
            {
              "internalType": "address payable",
              "name": "owner",
              "type": "address"
            },
            {
              "internalType": "address payable",
              "name": "seller",
              "type": "address"
            },
            {
              "internalType": "uint256",
              "name": "price",
              "type": "uint256"
            },
            {
              "internalType": "bool",
              "name": "currentlyListed",
              "type": "bool"
            }
          ],
          "internalType": "struct NFTMarketplace.ListedToken[]",
          "name": "",
          "type": "tuple[]"
        }
      ],
      "stateMutability": "view",
      "type": "function"
    },
    {
      "inputs": [
        {
          "internalType": "uint256",
          "name": "tokenId",
          "type": "uint256"
        }
      ],
      "name": "getApproved",
      "outputs": [
        {
          "internalType": "address",
          "name": "",
          "type": "address"
        }
      ],
      "stateMutability": "view",
      "type": "function"
    },
    {
      "inputs": [],
      "name": "getCurrentTokenId",
      "outputs": [
        {
          "internalType": "uint256",
          "name": "",
          "type": "uint256"
        }
      ],
      "stateMutability": "view",
      "type": "function"
    },
    {
      "inputs": [],
      "name": "getLatestIdToListedToken",
      "outputs": [
        {
          "components": [
            {
              "internalType": "uint256",
              "name": "tokenId",
              "type": "uint256"
            },
            {
              "internalType": "address payable",
              "name": "owner",
              "type": "address"
            },
            {
              "internalType": "address payable",
              "name": "seller",
              "type": "address"
            },
            {
              "internalType": "uint256",
              "name": "price",
              "type": "uint256"
            },
            {
              "internalType": "bool",
              "name": "currentlyListed",
              "type": "bool"
            }
          ],
          "internalType": "struct NFTMarketplace.ListedToken",
          "name": "",
          "type": "tuple"
        }
      ],
      "stateMutability": "view",
      "type": "function"
    },
    {
      "inputs": [],
      "name": "getListPrice",
      "outputs": [
        {
          "internalType": "uint256",
          "name": "",
          "type": "uint256"
        }
      ],
      "stateMutability": "view",
      "type": "function"
    },
    {
      "inputs": [
        {
          "internalType": "uint256",
          "name": "tokenId",
          "type": "uint256"
        }
      ],
      "name": "getListedForTokenId",
      "outputs": [
        {
          "components": [
            {
              "internalType": "uint256",
              "name": "tokenId",
              "type": "uint256"
            },
            {
              "internalType": "address payable",
              "name": "owner",
              "type": "address"
            },
            {
              "internalType": "address payable",
              "name": "seller",
              "type": "address"
            },
            {
              "internalType": "uint256",
              "name": "price",
              "type": "uint256"
            },
            {
              "internalType": "bool",
              "name": "currentlyListed",
              "type": "bool"
            }
          ],
          "internalType": "struct NFTMarketplace.ListedToken",
          "name": "",
          "type": "tuple"
        }
      ],
      "stateMutability": "view",
      "type": "function"
    },
    {
      "inputs": [],
      "name": "getMyNFTs",
      "outputs": [
        {
          "components": [
            {
              "internalType": "uint256",
              "name": "tokenId",
              "type": "uint256"
            },
            {
              "internalType": "address payable",
              "name": "owner",
              "type": "address"
            },
            {
              "internalType": "address payable",
              "name": "seller",
              "type": "address"
            },
            {
              "internalType": "uint256",
              "name": "price",
              "type": "uint256"
            },
            {
              "internalType": "bool",
              "name": "currentlyListed",
              "type": "bool"
            }
          ],
          "internalType": "struct NFTMarketplace.ListedToken[]",
          "name": "",
          "type": "tuple[]"
        }
      ],
      "stateMutability": "view",
      "type": "function"
    },
    {
      "inputs": [
        {
          "internalType": "address",
          "name": "owner",
          "type": "address"
        },
        {
          "internalType": "address",
          "name": "operator",
          "type": "address"
        }
      ],
      "name": "isApprovedForAll",
      "outputs": [
        {
          "internalType": "bool",
          "name": "",
          "type": "bool"
        }
      ],
      "stateMutability": "view",
      "type": "function"
    },
    {
      "inputs": [],
      "name": "name",
      "outputs": [
        {
          "internalType": "string",
          "name": "",
          "type": "string"
        }
      ],
      "stateMutability": "view",
      "type": "function"
    },
    {
      "inputs": [
        {
          "internalType": "uint256",
          "name": "tokenId",
          "type": "uint256"
        }
      ],
      "name": "ownerOf",
      "outputs": [
        {
          "internalType": "address",
          "name": "",
          "type": "address"
        }
      ],
      "stateMutability": "view",
      "type": "function"
    },
    {
      "inputs": [
        {
          "internalType": "address",
          "name": "from",
          "type": "address"
        },
        {
          "internalType": "address",
          "name": "to",
          "type": "address"
        },
        {
          "internalType": "uint256",
          "name": "tokenId",
          "type": "uint256"
        }
      ],
      "name": "safeTransferFrom",
      "outputs": [],
      "stateMutability": "nonpayable",
      "type": "function"
    },
    {
      "inputs": [
        {
          "internalType": "address",
          "name": "from",
          "type": "address"
        },
        {
          "internalType": "address",
          "name": "to",
          "type": "address"
        },
        {
          "internalType": "uint256",
          "name": "tokenId",
          "type": "uint256"
        },
        {
          "internalType": "bytes",
          "name": "data",
          "type": "bytes"
        }
      ],
      "name": "safeTransferFrom",
      "outputs": [],
      "stateMutability": "nonpayable",
      "type": "function"
    },
    {
      "inputs": [
        {
          "internalType": "address",
          "name": "operator",
          "type": "address"
        },
        {
          "internalType": "bool",
          "name": "approved",
          "type": "bool"
        }
      ],
      "name": "setApprovalForAll",
      "outputs": [],
      "stateMutability": "nonpayable",
      "type": "function"
    },
    {
      "inputs": [
        {
          "internalType": "bytes4",
          "name": "interfaceId",
          "type": "bytes4"
        }
      ],
      "name": "supportsInterface",
      "outputs": [
        {
          "internalType": "bool",
          "name": "",
          "type": "bool"
        }
      ],
      "stateMutability": "view",
      "type": "function"
    },
    {
      "inputs": [],
      "name": "symbol",
      "outputs": [
        {
          "internalType": "string",
          "name": "",
          "type": "string"
        }
      ],
      "stateMutability": "view",
      "type": "function"
    },
    {
      "inputs": [
        {
          "internalType": "uint256",
          "name": "tokenId",
          "type": "uint256"
        }
      ],
      "name": "tokenURI",
      "outputs": [
        {
          "internalType": "string",
          "name": "",
          "type": "string"
        }
      ],
      "stateMutability": "view",
      "type": "function"
    },
    {
      "inputs": [
        {
          "internalType": "address",
          "name": "from",
          "type": "address"
        },
        {
          "internalType": "address",
          "name": "to",
          "type": "address"
        },
        {
          "internalType": "uint256",
          "name": "tokenId",
          "type": "uint256"
        }
      ],
      "name": "transferFrom",
      "outputs": [],
      "stateMutability": "nonpayable",
      "type": "function"
    },
    {
      "inputs": [
        {
          "internalType": "uint256",
          "name": "_listPrice",
          "type": "uint256"
        }
      ],
      "name": "updateListPrice",
      "outputs": [],
      "stateMutability": "payable",
      "type": "function"
    }
  ],
  "bytecode": "0x6080604052662386f26fc10000600a553480156200001c57600080fd5b50604080518082018252600e81526d4e46544d61726b6574706c61636560901b6020808301918252835180850190945260048452634e46544d60e01b9084015281519192916200006f91600091620000a0565b50805162000085906001906020840190620000a0565b5050600780546001600160a01b031916331790555062000183565b828054620000ae9062000146565b90600052602060002090601f016020900481019282620000d257600085556200011d565b82601f10620000ed57805160ff19168380011785556200011d565b828001600101855582156200011d579182015b828111156200011d57825182559160200191906001019062000100565b506200012b9291506200012f565b5090565b5b808211156200012b576000815560010162000130565b600181811c908216806200015b57607f821691505b602082108114156200017d57634e487b7160e01b600052602260045260246000fd5b50919050565b61210c80620001936000396000f3fe6080604052600436106101355760003560e01c806372b3b620116100ab578063b88d4fde1161006f578063b88d4fde1461034d578063c322579c1461036d578063c87b56dd14610380578063d1a88ae5146103a0578063e0391b09146103b5578063e985e9c5146103ca57600080fd5b806372b3b620146102c557806395d89b41146102d857806398c3df16146102ed5780639b1225c41461031a578063a22cb4651461032d57600080fd5b806342842e0e116100fd57806342842e0e1461020b578063561892361461022b578063629cb2e41461024e5780636352211e1461027057806368f1945f1461029057806370a08231146102a557600080fd5b806301ffc9a71461013a57806306fdde031461016f578063081812fc14610191578063095ea7b3146101c957806323b872dd146101eb575b600080fd5b34801561014657600080fd5b5061015a610155366004611d12565b610413565b60405190151581526020015b60405180910390f35b34801561017b57600080fd5b50610184610465565b6040516101669190611ede565b34801561019d57600080fd5b506101b16101ac366004611da0565b6104f7565b6040516001600160a01b039091168152602001610166565b3480156101d557600080fd5b506101e96101e4366004611ce9565b61051e565b005b3480156101f757600080fd5b506101e9610206366004611bfb565b610639565b34801561021757600080fd5b506101e9610226366004611bfb565b61066a565b34801561023757600080fd5b50610240610685565b604051908152602001610166565b34801561025a57600080fd5b50610263610695565b6040516101669190611e90565b34801561027c57600080fd5b506101b161028b366004611da0565b6108da565b34801561029c57600080fd5b50600a54610240565b3480156102b157600080fd5b506102406102c0366004611baf565b61093a565b6102406102d3366004611d4a565b6109c0565b3480156102e457600080fd5b50610184610aa6565b3480156102f957600080fd5b5061030d610308366004611da0565b610ab5565b6040516101669190611fd5565b6101e9610328366004611da0565b610b1f565b34801561033957600080fd5b506101e9610348366004611caf565b610c6e565b34801561035957600080fd5b506101e9610368366004611c36565b610c7d565b6101e961037b366004611da0565b610caf565b34801561038c57600080fd5b5061018461039b366004611da0565b610d1e565b3480156103ac57600080fd5b5061030d610e2f565b3480156103c157600080fd5b50610263610ea6565b3480156103d657600080fd5b5061015a6103e5366004611bc9565b6001600160a01b03918216600090815260056020908152604080832093909416825291909152205460ff1690565b60006001600160e01b031982166380ac58cd60e01b148061044457506001600160e01b03198216635b5e139f60e01b145b8061045f57506301ffc9a760e01b6001600160e01b03198316145b92915050565b6060600080546104749061203e565b80601f01602080910402602001604051908101604052809291908181526020018280546104a09061203e565b80156104ed5780601f106104c2576101008083540402835291602001916104ed565b820191906000526020600020905b8154815290600101906020018083116104d057829003601f168201915b5050505050905090565b600061050282610fed565b506000908152600460205260409020546001600160a01b031690565b6000610529826108da565b9050806001600160a01b0316836001600160a01b0316141561059c5760405162461bcd60e51b815260206004820152602160248201527f4552433732313a20617070726f76616c20746f2063757272656e74206f776e656044820152603960f91b60648201526084015b60405180910390fd5b336001600160a01b03821614806105b857506105b881336103e5565b61062a5760405162461bcd60e51b815260206004820152603d60248201527f4552433732313a20617070726f76652063616c6c6572206973206e6f7420746f60448201527f6b656e206f776e6572206f7220617070726f76656420666f7220616c6c0000006064820152608401610593565b610634838361104f565b505050565b61064333826110bd565b61065f5760405162461bcd60e51b815260040161059390611ef1565b61063483838361113b565b61063483838360405180602001604052806000815250610c7d565b600061069060085490565b905090565b606060006106a260085490565b905060008060005b8381101561073a5733600b60006106c2846001611fe3565b81526020810191909152604001600020600101546001600160a01b03161480610715575033600b60006106f6846001611fe3565b81526020810191909152604001600020600201546001600160a01b0316145b1561072857610725600184611fe3565b92505b8061073281612079565b9150506106aa565b5060008267ffffffffffffffff81111561076457634e487b7160e01b600052604160045260246000fd5b60405190808252806020026020018201604052801561079d57816020015b61078a611a56565b8152602001906001900390816107825790505b50905060005b848110156108d15733600b60006107bb846001611fe3565b81526020810191909152604001600020600101546001600160a01b0316148061080e575033600b60006107ef846001611fe3565b81526020810191909152604001600020600201546001600160a01b0316145b156108bf576000610820826001611fe3565b6000818152600b6020908152604091829020825160a0810184528154815260018201546001600160a01b039081169382019390935260028201549092169282019290925260038201546060820152600482015460ff1615156080820152855192935090918590879081106108a457634e487b7160e01b600052603260045260246000fd5b60209081029190910101526108ba600186611fe3565b945050505b806108c981612079565b9150506107a3565b50949350505050565b6000818152600260205260408120546001600160a01b03168061045f5760405162461bcd60e51b8152602060048201526018602482015277115490cdcc8c4e881a5b9d985b1a59081d1bdad95b88125160421b6044820152606401610593565b60006001600160a01b0382166109a45760405162461bcd60e51b815260206004820152602960248201527f4552433732313a2061646472657373207a65726f206973206e6f7420612076616044820152683634b21037bbb732b960b91b6064820152608401610593565b506001600160a01b031660009081526003602052604090205490565b6000600a543414610a0b5760405162461bcd60e51b8152602060048201526015602482015274139bdd08195b9bdd59da08195d1a195c881cd95b9d605a1b6044820152606401610593565b60008211610a665760405162461bcd60e51b815260206004820152602260248201527f4d616b652073757265207468652070726963652069736e2774206e6567617469604482015261766560f01b6064820152608401610593565b610a74600880546001019055565b6000610a7f60085490565b9050610a8b33826112ac565b610a9581856112c6565b610a9f8184611360565b9392505050565b6060600180546104749061203e565b610abd611a56565b506000908152600b6020908152604091829020825160a0810184528154815260018201546001600160a01b03908116938201939093526002820154909216928201929092526003820154606082015260049091015460ff161515608082015290565b6000818152600b6020526040902060030154348114610b975760405162461bcd60e51b815260206004820152602e60248201527f506c65617365207375626d697420746865207072696365206f6620746865204e60448201526d465420746f20707572636861736560901b6064820152608401610593565b6000828152600b602052604090206002810180546004909201805460ff191660011790556001600160a01b03198216331790556001600160a01b0316610be1600980546001019055565b610bec30338561113b565b610bf6308461051e565b600754600a546040516001600160a01b039092169181156108fc0291906000818181858888f19350505050158015610c32573d6000803e3d6000fd5b506040516001600160a01b038216903480156108fc02916000818181858888f19350505050158015610c68573d6000803e3d6000fd5b50505050565b610c793383836113fd565b5050565b610c8733836110bd565b610ca35760405162461bcd60e51b815260040161059390611ef1565b610c68848484846114cc565b6007546001600160a01b03163314610d195760405162461bcd60e51b815260206004820152602760248201527f4f6e6c79206f776e65722063616e2075706461746520746865206c697374696e6044820152666720707269636560c81b6064820152608401610593565b600a55565b6060610d2982610fed565b60008281526006602052604081208054610d429061203e565b80601f0160208091040260200160405190810160405280929190818152602001828054610d6e9061203e565b8015610dbb5780601f10610d9057610100808354040283529160200191610dbb565b820191906000526020600020905b815481529060010190602001808311610d9e57829003601f168201915b505050505090506000610dd960408051602081019091526000815290565b9050805160001415610dec575092915050565b815115610e1e578082604051602001610e06929190611e24565b60405160208183030381529060405292505050919050565b610e27846114ff565b949350505050565b610e37611a56565b6000610e4260085490565b6000908152600b6020908152604091829020825160a0810184528154815260018201546001600160a01b03908116938201939093526002820154909216928201929092526003820154606082015260049091015460ff161515608082015292915050565b60606000610eb360085490565b905060008167ffffffffffffffff811115610ede57634e487b7160e01b600052604160045260246000fd5b604051908082528060200260200182016040528015610f1757816020015b610f04611a56565b815260200190600190039081610efc5790505b5090506000805b83811015610fe4576000610f33826001611fe3565b6000818152600b6020908152604091829020825160a0810184528154815260018201546001600160a01b039081169382019390935260028201549092169282019290925260038201546060820152600482015460ff161515608082015286519293509091869086908110610fb757634e487b7160e01b600052603260045260246000fd5b6020908102919091010152610fcd600185611fe3565b935050508080610fdc90612079565b915050610f1e565b50909392505050565b6000818152600260205260409020546001600160a01b031661104c5760405162461bcd60e51b8152602060048201526018602482015277115490cdcc8c4e881a5b9d985b1a59081d1bdad95b88125160421b6044820152606401610593565b50565b600081815260046020526040902080546001600160a01b0319166001600160a01b0384169081179091558190611084826108da565b6001600160a01b03167f8c5be1e5ebec7d5bd14f71427d1e84f3dd0314c0f7b2291e5b200ac8c7c3b92560405160405180910390a45050565b6000806110c9836108da565b9050806001600160a01b0316846001600160a01b0316148061111057506001600160a01b0380821660009081526005602090815260408083209388168352929052205460ff165b80610e275750836001600160a01b0316611129846104f7565b6001600160a01b031614949350505050565b826001600160a01b031661114e826108da565b6001600160a01b0316146111745760405162461bcd60e51b815260040161059390611f90565b6001600160a01b0382166111d65760405162461bcd60e51b8152602060048201526024808201527f4552433732313a207472616e7366657220746f20746865207a65726f206164646044820152637265737360e01b6064820152608401610593565b6111e38383836001611572565b826001600160a01b03166111f6826108da565b6001600160a01b03161461121c5760405162461bcd60e51b815260040161059390611f90565b600081815260046020908152604080832080546001600160a01b03199081169091556001600160a01b0387811680865260038552838620805460001901905590871680865283862080546001019055868652600290945282852080549092168417909155905184937fddf252ad1be2c89b69c2b068fc378daa952ba7f163c4a11628f55a4df523b3ef91a4505050565b610c798282604051806020016040528060008152506115fa565b6000828152600260205260409020546001600160a01b03166113415760405162461bcd60e51b815260206004820152602e60248201527f45524337323155524953746f726167653a2055524920736574206f66206e6f6e60448201526d32bc34b9ba32b73a103a37b5b2b760911b6064820152608401610593565b6000828152600660209081526040909120825161063492840190611a84565b6040805160a081018252838152306020808301828152338486018181526060860188815260016080880181815260008c8152600b9097529890952096518755925193860180546001600160a01b039586166001600160a01b03199182161790915590516002870180549190951691161790925551600384015592516004909201805492151560ff1990931692909217909155610c7991908461113b565b816001600160a01b0316836001600160a01b0316141561145f5760405162461bcd60e51b815260206004820152601960248201527f4552433732313a20617070726f766520746f2063616c6c6572000000000000006044820152606401610593565b6001600160a01b03838116600081815260056020908152604080832094871680845294825291829020805460ff191686151590811790915591519182527f17307eab39ab6107e8899845ad3d59bd9653f200f220920489ca2b5937696c31910160405180910390a3505050565b6114d784848461113b565b6114e38484848461162d565b610c685760405162461bcd60e51b815260040161059390611f3e565b606061150a82610fed565b600061152160408051602081019091526000815290565b905060008151116115415760405180602001604052806000815250610a9f565b8061154b8461173a565b60405160200161155c929190611e24565b6040516020818303038152906040529392505050565b6001811115610c68576001600160a01b038416156115b8576001600160a01b038416600090815260036020526040812080548392906115b2908490611ffb565b90915550505b6001600160a01b03831615610c68576001600160a01b038316600090815260036020526040812080548392906115ef908490611fe3565b909155505050505050565b61160483836117e5565b611611600084848461162d565b6106345760405162461bcd60e51b815260040161059390611f3e565b60006001600160a01b0384163b1561172f57604051630a85bd0160e11b81526001600160a01b0385169063150b7a0290611671903390899088908890600401611e53565b602060405180830381600087803b15801561168b57600080fd5b505af19250505080156116bb575060408051601f3d908101601f191682019092526116b891810190611d2e565b60015b611715573d8080156116e9576040519150601f19603f3d011682016040523d82523d6000602084013e6116ee565b606091505b50805161170d5760405162461bcd60e51b815260040161059390611f3e565b805181602001fd5b6001600160e01b031916630a85bd0160e11b149050610e27565b506001949350505050565b606060006117478361197e565b600101905060008167ffffffffffffffff81111561177557634e487b7160e01b600052604160045260246000fd5b6040519080825280601f01601f19166020018201604052801561179f576020820181803683370190505b5090508181016020015b600019016f181899199a1a9b1b9c1cb0b131b232b360811b600a86061a8153600a85049450846117d8576117dd565b6117a9565b509392505050565b6001600160a01b03821661183b5760405162461bcd60e51b815260206004820181905260248201527f4552433732313a206d696e7420746f20746865207a65726f20616464726573736044820152606401610593565b6000818152600260205260409020546001600160a01b0316156118a05760405162461bcd60e51b815260206004820152601c60248201527f4552433732313a20746f6b656e20616c7265616479206d696e746564000000006044820152606401610593565b6118ae600083836001611572565b6000818152600260205260409020546001600160a01b0316156119135760405162461bcd60e51b815260206004820152601c60248201527f4552433732313a20746f6b656e20616c7265616479206d696e746564000000006044820152606401610593565b6001600160a01b038216600081815260036020908152604080832080546001019055848352600290915280822080546001600160a01b0319168417905551839291907fddf252ad1be2c89b69c2b068fc378daa952ba7f163c4a11628f55a4df523b3ef908290a45050565b60008072184f03e93ff9f4daa797ed6e38ed64bf6a1f0160401b83106119bd5772184f03e93ff9f4daa797ed6e38ed64bf6a1f0160401b830492506040015b6d04ee2d6d415b85acef810000000083106119e9576d04ee2d6d415b85acef8100000000830492506020015b662386f26fc100008310611a0757662386f26fc10000830492506010015b6305f5e1008310611a1f576305f5e100830492506008015b6127108310611a3357612710830492506004015b60648310611a45576064830492506002015b600a831061045f5760010192915050565b6040805160a08101825260008082526020820181905291810182905260608101829052608081019190915290565b828054611a909061203e565b90600052602060002090601f016020900481019282611ab25760008555611af8565b82601f10611acb57805160ff1916838001178555611af8565b82800160010185558215611af8579182015b82811115611af8578251825591602001919060010190611add565b50611b04929150611b08565b5090565b5b80821115611b045760008155600101611b09565b600067ffffffffffffffff80841115611b3857611b386120aa565b604051601f8501601f19908116603f01168101908282118183101715611b6057611b606120aa565b81604052809350858152868686011115611b7957600080fd5b858560208301376000602087830101525050509392505050565b80356001600160a01b0381168114611baa57600080fd5b919050565b600060208284031215611bc0578081fd5b610a9f82611b93565b60008060408385031215611bdb578081fd5b611be483611b93565b9150611bf260208401611b93565b90509250929050565b600080600060608486031215611c0f578081fd5b611c1884611b93565b9250611c2660208501611b93565b9150604084013590509250925092565b60008060008060808587031215611c4b578081fd5b611c5485611b93565b9350611c6260208601611b93565b925060408501359150606085013567ffffffffffffffff811115611c84578182fd5b8501601f81018713611c94578182fd5b611ca387823560208401611b1d565b91505092959194509250565b60008060408385031215611cc1578182fd5b611cca83611b93565b915060208301358015158114611cde578182fd5b809150509250929050565b60008060408385031215611cfb578182fd5b611d0483611b93565b946020939093013593505050565b600060208284031215611d23578081fd5b8135610a9f816120c0565b600060208284031215611d3f578081fd5b8151610a9f816120c0565b60008060408385031215611d5c578182fd5b823567ffffffffffffffff811115611d72578283fd5b8301601f81018513611d82578283fd5b611d9185823560208401611b1d565b95602094909401359450505050565b600060208284031215611db1578081fd5b5035919050565b60008151808452611dd0816020860160208601612012565b601f01601f19169290920160200192915050565b805182526020808201516001600160a01b039081169184019190915260408083015190911690830152606080820151908301526080908101511515910152565b60008351611e36818460208801612012565b835190830190611e4a818360208801612012565b01949350505050565b6001600160a01b0385811682528416602082015260408101839052608060608201819052600090611e8690830184611db8565b9695505050505050565b6020808252825182820181905260009190848201906040850190845b81811015611ed257611ebf838551611de4565b9284019260a09290920191600101611eac565b50909695505050505050565b602081526000610a9f6020830184611db8565b6020808252602d908201527f4552433732313a2063616c6c6572206973206e6f7420746f6b656e206f776e6560408201526c1c881bdc88185c1c1c9bdd9959609a1b606082015260800190565b60208082526032908201527f4552433732313a207472616e7366657220746f206e6f6e20455243373231526560408201527131b2b4bb32b91034b6b83632b6b2b73a32b960711b606082015260800190565b60208082526025908201527f4552433732313a207472616e736665722066726f6d20696e636f72726563742060408201526437bbb732b960d91b606082015260800190565b60a0810161045f8284611de4565b60008219821115611ff657611ff6612094565b500190565b60008282101561200d5761200d612094565b500390565b60005b8381101561202d578181015183820152602001612015565b83811115610c685750506000910152565b600181811c9082168061205257607f821691505b6020821081141561207357634e487b7160e01b600052602260045260246000fd5b50919050565b600060001982141561208d5761208d612094565b5060010190565b634e487b7160e01b600052601160045260246000fd5b634e487b7160e01b600052604160045260246000fd5b6001600160e01b03198116811461104c57600080fdfea2646970667358221220c008890821335917a022d9982f055431ec2375e3aea32de2a11038590f157a9e64736f6c63430008040033",
  "linkReferences": {},
  "deployedLinkReferences": {}
}